{
  "contractName": "Journal",
  "abi": [
    {
      "constant": true,
      "inputs": [
        {
          "name": "",
          "type": "address"
        }
      ],
      "name": "authors",
      "outputs": [
        {
          "name": "name",
          "type": "string"
        },
        {
          "name": "authorAddress",
          "type": "address"
        }
      ],
      "payable": false,
      "stateMutability": "view",
      "type": "function",
      "signature": "0xbf9c5001"
    },
    {
      "inputs": [],
      "payable": false,
      "stateMutability": "nonpayable",
      "type": "constructor",
      "signature": "constructor"
    },
    {
      "constant": false,
      "inputs": [
        {
          "name": "_address",
          "type": "address"
        },
        {
          "name": "_name",
          "type": "string"
        }
      ],
      "name": "addAuthorName",
      "outputs": [
        {
          "name": "",
          "type": "bool"
        }
      ],
      "payable": false,
      "stateMutability": "nonpayable",
      "type": "function",
      "signature": "0x511846e3"
    },
    {
      "constant": true,
      "inputs": [
        {
          "name": "_address",
          "type": "address"
        }
      ],
      "name": "getAuthorName",
      "outputs": [
        {
          "name": "",
          "type": "string"
        }
      ],
      "payable": false,
      "stateMutability": "view",
      "type": "function",
      "signature": "0x64960932"
    },
    {
      "constant": false,
      "inputs": [
        {
          "name": "_title",
          "type": "string"
        },
        {
          "name": "_body",
          "type": "string"
        },
        {
          "name": "_encrypt",
          "type": "bool"
        },
        {
          "name": "_tags",
          "type": "string"
        },
        {
          "name": "_address",
          "type": "address"
        }
      ],
      "name": "createJournalEntry",
      "outputs": [
        {
          "name": "",
          "type": "bool"
        }
      ],
      "payable": false,
      "stateMutability": "nonpayable",
      "type": "function",
      "signature": "0x5b2a8be9"
    },
    {
      "constant": true,
      "inputs": [
        {
          "name": "_address",
          "type": "address"
        }
      ],
      "name": "getJournalEntryTitle",
      "outputs": [
        {
          "name": "title",
          "type": "string[]"
        }
      ],
      "payable": false,
      "stateMutability": "view",
      "type": "function",
      "signature": "0x487cb70a"
    },
    {
      "constant": true,
      "inputs": [
        {
          "name": "_address",
          "type": "address"
        }
      ],
      "name": "getJournalEntryBody",
      "outputs": [
        {
          "name": "body",
          "type": "string[]"
        }
      ],
      "payable": false,
      "stateMutability": "view",
      "type": "function",
      "signature": "0xcc41f3b3"
    },
    {
      "constant": true,
      "inputs": [
        {
          "name": "_address",
          "type": "address"
        }
      ],
      "name": "getJournalEntryTags",
      "outputs": [
        {
          "name": "tags",
          "type": "string[]"
        }
      ],
      "payable": false,
      "stateMutability": "view",
      "type": "function",
      "signature": "0x2913f042"
    }
  ],
  "bytecode": "0x608060405234801561001057600080fd5b50336000806101000a81548173ffffffffffffffffffffffffffffffffffffffff021916908373ffffffffffffffffffffffffffffffffffffffff160217905550611008806100606000396000f3fe608060405260043610610083576000357c0100000000000000000000000000000000000000000000000000000000900463ffffffff1680632913f04214610088578063487cb70a146100c5578063511846e3146101025780635b2a8be91461013f578063649609321461017c578063bf9c5001146101b9578063cc41f3b3146101f7575b600080fd5b34801561009457600080fd5b506100af60048036036100aa9190810190610bc8565b610234565b6040516100bc9190610dfc565b60405180910390f35b3480156100d157600080fd5b506100ec60048036036100e79190810190610bc8565b61035f565b6040516100f99190610dfc565b60405180910390f35b34801561010e57600080fd5b5061012960048036036101249190810190610bf1565b61048a565b6040516101369190610e1e565b60405180910390f35b34801561014b57600080fd5b5061016660048036036101619190810190610c45565b610529565b6040516101739190610e1e565b60405180910390f35b34801561018857600080fd5b506101a3600480360361019e9190810190610bc8565b610778565b6040516101b09190610e39565b60405180910390f35b3480156101c557600080fd5b506101e060048036036101db9190810190610bc8565b61089e565b6040516101ee929190610e5b565b60405180910390f35b34801561020357600080fd5b5061021e60048036036102199190810190610bc8565b61097a565b60405161022b9190610dfc565b60405180910390f35b6060600260008373ffffffffffffffffffffffffffffffffffffffff1673ffffffffffffffffffffffffffffffffffffffff168152602001908152602001600020600301805480602002602001604051908101604052809291908181526020016000905b82821015610354578382906000526020600020018054600181600116156101000203166002900480601f0160208091040260200160405190810160405280929190818152602001828054600181600116156101000203166002900480156103405780601f1061031557610100808354040283529160200191610340565b820191906000526020600020905b81548152906001019060200180831161032357829003601f168201915b505050505081526020019060010190610298565b505050509050919050565b6060600260008373ffffffffffffffffffffffffffffffffffffffff1673ffffffffffffffffffffffffffffffffffffffff168152602001908152602001600020600001805480602002602001604051908101604052809291908181526020016000905b8282101561047f578382906000526020600020018054600181600116156101000203166002900480601f01602080910402602001604051908101604052809291908181526020018280546001816001161561010002031660029004801561046b5780601f106104405761010080835404028352916020019161046b565b820191906000526020600020905b81548152906001019060200180831161044e57829003601f168201915b5050505050815260200190600101906103c3565b505050509050919050565b6000828073ffffffffffffffffffffffffffffffffffffffff163373ffffffffffffffffffffffffffffffffffffffff161415156104c757600080fd5b82600160008673ffffffffffffffffffffffffffffffffffffffff1673ffffffffffffffffffffffffffffffffffffffff168152602001908152602001600020600001908051906020019061051d929190610aa5565b50600191505092915050565b6000818073ffffffffffffffffffffffffffffffffffffffff163373ffffffffffffffffffffffffffffffffffffffff1614151561056657600080fd5b600260008473ffffffffffffffffffffffffffffffffffffffff1673ffffffffffffffffffffffffffffffffffffffff1681526020019081526020016000206000018790806001815401808255809150509060018203906000526020600020016000909192909190915090805190602001906105e3929190610aa5565b5050600260008473ffffffffffffffffffffffffffffffffffffffff1673ffffffffffffffffffffffffffffffffffffffff168152602001908152602001600020600101869080600181540180825580915050906001820390600052602060002001600090919290919091509080519060200190610662929190610aa5565b5050600260008473ffffffffffffffffffffffffffffffffffffffff1673ffffffffffffffffffffffffffffffffffffffff16815260200190815260200160002060020185908060018154018082558091505090600182039060005260206000209060209182820401919006909192909190916101000a81548160ff02191690831515021790555050600260008473ffffffffffffffffffffffffffffffffffffffff1673ffffffffffffffffffffffffffffffffffffffff168152602001908152602001600020600301849080600181540180825580915050906001820390600052602060002001600090919290919091509080519060200190610768929190610aa5565b5050600191505095945050505050565b6060818073ffffffffffffffffffffffffffffffffffffffff163373ffffffffffffffffffffffffffffffffffffffff161415156107b557600080fd5b6060600160008573ffffffffffffffffffffffffffffffffffffffff1673ffffffffffffffffffffffffffffffffffffffff1681526020019081526020016000206000018054600181600116156101000203166002900480601f01602080910402602001604051908101604052809291908181526020018280546001816001161561010002031660029004801561088d5780601f106108625761010080835404028352916020019161088d565b820191906000526020600020905b81548152906001019060200180831161087057829003601f168201915b505050505090508092505050919050565b6001602052806000526040600020600091509050806000018054600181600116156101000203166002900480601f01602080910402602001604051908101604052809291908181526020018280546001816001161561010002031660029004801561094a5780601f1061091f5761010080835404028352916020019161094a565b820191906000526020600020905b81548152906001019060200180831161092d57829003601f168201915b5050505050908060010160009054906101000a900473ffffffffffffffffffffffffffffffffffffffff16905082565b6060600260008373ffffffffffffffffffffffffffffffffffffffff1673ffffffffffffffffffffffffffffffffffffffff168152602001908152602001600020600101805480602002602001604051908101604052809291908181526020016000905b82821015610a9a578382906000526020600020018054600181600116156101000203166002900480601f016020809104026020016040519081016040528092919081815260200182805460018160011615610100020316600290048015610a865780601f10610a5b57610100808354040283529160200191610a86565b820191906000526020600020905b815481529060010190602001808311610a6957829003601f168201915b5050505050815260200190600101906109de565b505050509050919050565b828054600181600116156101000203166002900490600052602060002090601f016020900481019282601f10610ae657805160ff1916838001178555610b14565b82800160010185558215610b14579182015b82811115610b13578251825591602001919060010190610af8565b5b509050610b219190610b25565b5090565b610b4791905b80821115610b43576000816000905550600101610b2b565b5090565b90565b6000610b568235610f5d565b905092915050565b6000610b6a8235610f6f565b905092915050565b600082601f8301121515610b8557600080fd5b8135610b98610b9382610eb8565b610e8b565b91508082526020830160208301858383011115610bb457600080fd5b610bbf838284610f7b565b50505092915050565b600060208284031215610bda57600080fd5b6000610be884828501610b4a565b91505092915050565b60008060408385031215610c0457600080fd5b6000610c1285828601610b4a565b925050602083013567ffffffffffffffff811115610c2f57600080fd5b610c3b85828601610b72565b9150509250929050565b600080600080600060a08688031215610c5d57600080fd5b600086013567ffffffffffffffff811115610c7757600080fd5b610c8388828901610b72565b955050602086013567ffffffffffffffff811115610ca057600080fd5b610cac88828901610b72565b9450506040610cbd88828901610b5e565b935050606086013567ffffffffffffffff811115610cda57600080fd5b610ce688828901610b72565b9250506080610cf788828901610b4a565b9150509295509295909350565b610d0d81610f1f565b82525050565b6000610d1e82610ef1565b80845260208401935083602082028501610d3785610ee4565b60005b84811015610d70578383038852610d52838351610dc6565b9250610d5d82610f12565b9150602088019750600181019050610d3a565b508196508694505050505092915050565b610d8a81610f31565b82525050565b6000610d9b82610f07565b808452610daf816020860160208601610f8a565b610db881610fbd565b602085010191505092915050565b6000610dd182610efc565b808452610de5816020860160208601610f8a565b610dee81610fbd565b602085010191505092915050565b60006020820190508181036000830152610e168184610d13565b905092915050565b6000602082019050610e336000830184610d81565b92915050565b60006020820190508181036000830152610e538184610d90565b905092915050565b60006040820190508181036000830152610e758185610dc6565b9050610e846020830184610d04565b9392505050565b6000604051905081810181811067ffffffffffffffff82111715610eae57600080fd5b8060405250919050565b600067ffffffffffffffff821115610ecf57600080fd5b601f19601f8301169050602081019050919050565b6000602082019050919050565b600081519050919050565b600081519050919050565b600081519050919050565b6000602082019050919050565b6000610f2a82610f3d565b9050919050565b60008115159050919050565b600073ffffffffffffffffffffffffffffffffffffffff82169050919050565b6000610f6882610f3d565b9050919050565b60008115159050919050565b82818337600083830152505050565b60005b83811015610fa8578082015181840152602081019050610f8d565b83811115610fb7576000848401525b50505050565b6000601f19601f830116905091905056fea265627a7a72305820f17e3cc016e4fd261dfbb9b4e1f125e7e801e06067982ee38f13099787de8e106c6578706572696d656e74616cf50037",
  "source": "pragma solidity >= 0.4.24;\npragma experimental ABIEncoderV2;\n\ncontract Journal {\n\n    /* owner of Journal contract */\n    address owner;\n\n    /* Author contains information\n      about the author if he/she \n      chooses to provide any\n      public\n    */\n    struct Author {\n        string name;\n        address authorAddress;\n    }\n\n    /* Information of the contributors */\n    // struct Contributor {\n    //     address contributor;\n    //     string name;\n    // }\n\n    /* Journal Entry at this point,\n     keeping things simple and contain\n     only plain-text\n    */\n    struct JournalEntry {\n        string [] title;\n        string [] body;\n        bool [] encrypt;\n        string [] tags;\n    }\n\n    /* Map of entries for a given Author */\n    mapping (address => Author) public authors;\n    mapping (address => JournalEntry) internal entries;\n    \n    /* Modifiers */\n    modifier verifyCaller(address _address)\n    {\n        require (msg.sender == _address);\n        _;\n    }\n    \n    /* Events */\n\n    /* Initialize the contract with the owner*/\n    constructor() public {\n        owner = msg.sender;\n    }\n\n    /** Add author's name */\n    function addAuthorName(address _address, string memory _name)\n        public\n        verifyCaller(_address)\n        returns(bool) {\n            authors[_address].name = _name;\n            return true;\n    }\n\n    /* Get author's name */\n    function getAuthorName(address _address)\n        public\n        view\n        verifyCaller(_address)\n        returns(string memory) {\n            string memory name = authors[_address].name;\n        return name;\n    }\n\n    /* Create Journal entry for an author */\n    function createJournalEntry(\n        string memory _title,\n        string memory _body,\n        bool _encrypt,\n        string memory _tags,\n        address _address) \n        public\n        verifyCaller(_address)\n        returns (bool) {\n        // entries[_address].title.push(strConcat(_title));\n        // entries[_address].body.push(strConcat(_body));\n        // entries[_address].encrypt.push(_encrypt);\n        // entries[_address].tags.push(strConcat(_tags));\n        entries[_address].title.push(_title);\n        entries[_address].body.push(_body);\n        entries[_address].encrypt.push(_encrypt);\n        entries[_address].tags.push(_tags);\n        return true;\n    }\n\n    /* Get the list of entries for a given user */\n    function getJournalEntryTitle(address _address) public view returns (string[] memory title) {\n        //todo: \n        return entries[_address].title;\n    }\n\n    function getJournalEntryBody(address _address) public view returns (string[] memory body) {\n        return entries[_address].body;\n    }\n\n    function getJournalEntryTags(address _address) public view returns (string [] memory tags) {\n        return entries[_address].tags;\n    }\n\n    /* Helper functions */\n    // concatenates string with a delimeter of formm ',|--|'\n    function strConcat(string memory _a) internal returns (string memory)\n    {\n        string memory delimeter = \",|--|\";\n        bytes memory _ba = bytes(_a);\n        bytes memory _bb = bytes(delimeter);\n     \n        string memory ab = new string(_ba.length + _bb.length );\n        bytes memory ba = bytes(ab);\n        uint k = 0;\n        for (uint i = 0; i < _ba.length; i++) {\n            ba[k++] = _ba[i];\n        }\n        for (uint i = 0; i < _bb.length; i++) {\n            ba[k++] = _bb[i];\n        }\n        return string(ba);\n    }\n}\n",
  "sourcePath": "/home/grisha/projects/EthereumBootCampFinalProject/contracts/Journal.sol",
  "compiler": {
    "name": "solc",
    "version": "0.5.0+commit.1d4f565a.Emscripten.clang"
  },
  "schemaVersion": "3.0.1",
  "updatedAt": "2019-01-27T23:38:21.060Z",
  "devdoc": {
    "methods": {}
  },
  "userdoc": {
    "methods": {
      "addAuthorName(address,string)": {
        "notice": "Add author's name "
      }
    }
  }
}