{
  "contractName": "Journal",
  "abi": [
    {
      "constant": true,
      "inputs": [
        {
          "name": "",
          "type": "address"
        }
      ],
      "name": "authors",
      "outputs": [
        {
          "name": "name",
          "type": "string"
        },
        {
          "name": "authorAddress",
          "type": "address"
        }
      ],
      "payable": false,
      "stateMutability": "view",
      "type": "function"
    },
    {
      "inputs": [],
      "payable": false,
      "stateMutability": "nonpayable",
      "type": "constructor"
    },
    {
      "anonymous": false,
      "inputs": [
        {
          "indexed": false,
          "name": "_address",
          "type": "address"
        }
      ],
      "name": "AuthorInfoUpdated",
      "type": "event"
    },
    {
      "anonymous": false,
      "inputs": [
        {
          "indexed": false,
          "name": "_address",
          "type": "address"
        }
      ],
      "name": "NewJournalEntryCreated",
      "type": "event"
    },
    {
      "constant": false,
      "inputs": [
        {
          "name": "_address",
          "type": "address"
        },
        {
          "name": "_name",
          "type": "string"
        }
      ],
      "name": "addAuthorName",
      "outputs": [],
      "payable": false,
      "stateMutability": "nonpayable",
      "type": "function"
    },
    {
      "constant": true,
      "inputs": [
        {
          "name": "_address",
          "type": "address"
        }
      ],
      "name": "getAuthorName",
      "outputs": [
        {
          "name": "name",
          "type": "string"
        }
      ],
      "payable": false,
      "stateMutability": "view",
      "type": "function"
    },
    {
      "constant": false,
      "inputs": [
        {
          "name": "_title",
          "type": "string"
        },
        {
          "name": "_body",
          "type": "string"
        },
        {
          "name": "_encrypt",
          "type": "bool"
        },
        {
          "name": "_tags",
          "type": "string"
        },
        {
          "name": "_address",
          "type": "address"
        }
      ],
      "name": "createJournalEntry",
      "outputs": [],
      "payable": false,
      "stateMutability": "nonpayable",
      "type": "function"
    },
    {
      "constant": true,
      "inputs": [
        {
          "name": "_address",
          "type": "address"
        }
      ],
      "name": "getJournalEntryTitle",
      "outputs": [
        {
          "name": "",
          "type": "string[]"
        }
      ],
      "payable": false,
      "stateMutability": "view",
      "type": "function"
    },
    {
      "constant": true,
      "inputs": [
        {
          "name": "_address",
          "type": "address"
        }
      ],
      "name": "getJournalEntryBody",
      "outputs": [
        {
          "name": "",
          "type": "string[]"
        }
      ],
      "payable": false,
      "stateMutability": "view",
      "type": "function"
    },
    {
      "constant": true,
      "inputs": [
        {
          "name": "_address",
          "type": "address"
        }
      ],
      "name": "getJournalEntryTags",
      "outputs": [
        {
          "name": "",
          "type": "string[]"
        }
      ],
      "payable": false,
      "stateMutability": "view",
      "type": "function"
    },
    {
      "constant": true,
      "inputs": [
        {
          "name": "_address",
          "type": "address"
        }
      ],
      "name": "getJournalEntryEncryptFlags",
      "outputs": [
        {
          "name": "",
          "type": "bool[]"
        }
      ],
      "payable": false,
      "stateMutability": "view",
      "type": "function"
    },
    {
      "constant": true,
      "inputs": [
        {
          "name": "_address",
          "type": "address"
        }
      ],
      "name": "getJournalEntry",
      "outputs": [
        {
          "name": "",
          "type": "string[]"
        },
        {
          "name": "",
          "type": "string[]"
        },
        {
          "name": "",
          "type": "string[]"
        },
        {
          "name": "",
          "type": "bool[]"
        }
      ],
      "payable": false,
      "stateMutability": "view",
      "type": "function"
    }
  ],
  "bytecode": "0x608060405234801561001057600080fd5b50336000806101000a81548173ffffffffffffffffffffffffffffffffffffffff021916908373ffffffffffffffffffffffffffffffffffffffff1602179055506116cd806100606000396000f3fe608060405260043610610099576000357c0100000000000000000000000000000000000000000000000000000000900463ffffffff1680632913f0421461009e578063487cb70a146100db5780634c34881b14610118578063511846e3146101585780635b2a8be91461018157806364960932146101aa5780638754843d146101e7578063bf9c500114610224578063cc41f3b314610262575b600080fd5b3480156100aa57600080fd5b506100c560048036036100c0919081019061118a565b61029f565b6040516100d29190611456565b60405180910390f35b3480156100e757600080fd5b5061010260048036036100fd919081019061118a565b6103ca565b60405161010f9190611456565b60405180910390f35b34801561012457600080fd5b5061013f600480360361013a919081019061118a565b6104f5565b60405161014f9493929190611478565b60405180910390f35b34801561016457600080fd5b5061017f600480360361017a91908101906111b3565b610932565b005b34801561018d57600080fd5b506101a860048036036101a39190810190611207565b610a00565b005b3480156101b657600080fd5b506101d160048036036101cc919081019061118a565b610c7e565b6040516101de91906114d9565b60405180910390f35b3480156101f357600080fd5b5061020e6004803603610209919081019061118a565b610da1565b60405161021b9190611434565b60405180910390f35b34801561023057600080fd5b5061024b6004803603610246919081019061118a565b610e60565b6040516102599291906114fb565b60405180910390f35b34801561026e57600080fd5b506102896004803603610284919081019061118a565b610f3c565b6040516102969190611456565b60405180910390f35b6060600260008373ffffffffffffffffffffffffffffffffffffffff1673ffffffffffffffffffffffffffffffffffffffff168152602001908152602001600020600301805480602002602001604051908101604052809291908181526020016000905b828210156103bf578382906000526020600020018054600181600116156101000203166002900480601f0160208091040260200160405190810160405280929190818152602001828054600181600116156101000203166002900480156103ab5780601f10610380576101008083540402835291602001916103ab565b820191906000526020600020905b81548152906001019060200180831161038e57829003601f168201915b505050505081526020019060010190610303565b505050509050919050565b6060600260008373ffffffffffffffffffffffffffffffffffffffff1673ffffffffffffffffffffffffffffffffffffffff168152602001908152602001600020600001805480602002602001604051908101604052809291908181526020016000905b828210156104ea578382906000526020600020018054600181600116156101000203166002900480601f0160208091040260200160405190810160405280929190818152602001828054600181600116156101000203166002900480156104d65780601f106104ab576101008083540402835291602001916104d6565b820191906000526020600020905b8154815290600101906020018083116104b957829003601f168201915b50505050508152602001906001019061042e565b505050509050919050565b606080606080600260008673ffffffffffffffffffffffffffffffffffffffff1673ffffffffffffffffffffffffffffffffffffffff168152602001908152602001600020600001600260008773ffffffffffffffffffffffffffffffffffffffff1673ffffffffffffffffffffffffffffffffffffffff168152602001908152602001600020600101600260008873ffffffffffffffffffffffffffffffffffffffff1673ffffffffffffffffffffffffffffffffffffffff168152602001908152602001600020600301600260008973ffffffffffffffffffffffffffffffffffffffff1673ffffffffffffffffffffffffffffffffffffffff16815260200190815260200160002060020183805480602002602001604051908101604052809291908181526020016000905b828210156106e0578382906000526020600020018054600181600116156101000203166002900480601f0160208091040260200160405190810160405280929190818152602001828054600181600116156101000203166002900480156106cc5780601f106106a1576101008083540402835291602001916106cc565b820191906000526020600020905b8154815290600101906020018083116106af57829003601f168201915b505050505081526020019060010190610624565b50505050935082805480602002602001604051908101604052809291908181526020016000905b828210156107c3578382906000526020600020018054600181600116156101000203166002900480601f0160208091040260200160405190810160405280929190818152602001828054600181600116156101000203166002900480156107af5780601f10610784576101008083540402835291602001916107af565b820191906000526020600020905b81548152906001019060200180831161079257829003601f168201915b505050505081526020019060010190610707565b50505050925081805480602002602001604051908101604052809291908181526020016000905b828210156108a6578382906000526020600020018054600181600116156101000203166002900480601f0160208091040260200160405190810160405280929190818152602001828054600181600116156101000203166002900480156108925780601f1061086757610100808354040283529160200191610892565b820191906000526020600020905b81548152906001019060200180831161087557829003601f168201915b5050505050815260200190600101906107ea565b5050505091508080548060200260200160405190810160405280929190818152602001828054801561091c57602002820191906000526020600020906000905b82829054906101000a900460ff161515815260200190600101906020826000010492830192600103820291508084116108e65790505b5050505050905093509350935093509193509193565b818073ffffffffffffffffffffffffffffffffffffffff163373ffffffffffffffffffffffffffffffffffffffff1614151561096d57600080fd5b81600160008573ffffffffffffffffffffffffffffffffffffffff1673ffffffffffffffffffffffffffffffffffffffff16815260200190815260200160002060000190805190602001906109c3929190611067565b507f9bdbcf034a0d57860284c5f12eafb8ae468074651da66c16e3da755aeef3526a836040516109f39190611419565b60405180910390a1505050565b808073ffffffffffffffffffffffffffffffffffffffff163373ffffffffffffffffffffffffffffffffffffffff16141515610a3b57600080fd5b600260008373ffffffffffffffffffffffffffffffffffffffff1673ffffffffffffffffffffffffffffffffffffffff168152602001908152602001600020600001869080600181540180825580915050906001820390600052602060002001600090919290919091509080519060200190610ab8929190611067565b5050600260008373ffffffffffffffffffffffffffffffffffffffff1673ffffffffffffffffffffffffffffffffffffffff168152602001908152602001600020600101859080600181540180825580915050906001820390600052602060002001600090919290919091509080519060200190610b37929190611067565b5050600260008373ffffffffffffffffffffffffffffffffffffffff1673ffffffffffffffffffffffffffffffffffffffff16815260200190815260200160002060020184908060018154018082558091505090600182039060005260206000209060209182820401919006909192909190916101000a81548160ff02191690831515021790555050600260008373ffffffffffffffffffffffffffffffffffffffff1673ffffffffffffffffffffffffffffffffffffffff168152602001908152602001600020600301839080600181540180825580915050906001820390600052602060002001600090919290919091509080519060200190610c3d929190611067565b50507fdea95d0dedf74a7d032323bc89af794051e18bf0f3cfe5c442951a87204f979482604051610c6e9190611419565b60405180910390a1505050505050565b6060818073ffffffffffffffffffffffffffffffffffffffff163373ffffffffffffffffffffffffffffffffffffffff16141515610cbb57600080fd5b600160008473ffffffffffffffffffffffffffffffffffffffff1673ffffffffffffffffffffffffffffffffffffffff1681526020019081526020016000206000018054600181600116156101000203166002900480601f016020809104026020016040519081016040528092919081815260200182805460018160011615610100020316600290048015610d915780601f10610d6657610100808354040283529160200191610d91565b820191906000526020600020905b815481529060010190602001808311610d7457829003601f168201915b5050505050915081915050919050565b6060600260008373ffffffffffffffffffffffffffffffffffffffff1673ffffffffffffffffffffffffffffffffffffffff168152602001908152602001600020600201805480602002602001604051908101604052809291908181526020018280548015610e5457602002820191906000526020600020906000905b82829054906101000a900460ff16151581526020019060010190602082600001049283019260010382029150808411610e1e5790505b50505050509050919050565b6001602052806000526040600020600091509050806000018054600181600116156101000203166002900480601f016020809104026020016040519081016040528092919081815260200182805460018160011615610100020316600290048015610f0c5780601f10610ee157610100808354040283529160200191610f0c565b820191906000526020600020905b815481529060010190602001808311610eef57829003601f168201915b5050505050908060010160009054906101000a900473ffffffffffffffffffffffffffffffffffffffff16905082565b6060600260008373ffffffffffffffffffffffffffffffffffffffff1673ffffffffffffffffffffffffffffffffffffffff168152602001908152602001600020600101805480602002602001604051908101604052809291908181526020016000905b8282101561105c578382906000526020600020018054600181600116156101000203166002900480601f0160208091040260200160405190810160405280929190818152602001828054600181600116156101000203166002900480156110485780601f1061101d57610100808354040283529160200191611048565b820191906000526020600020905b81548152906001019060200180831161102b57829003601f168201915b505050505081526020019060010190610fa0565b505050509050919050565b828054600181600116156101000203166002900490600052602060002090601f016020900481019282601f106110a857805160ff19168380011785556110d6565b828001600101855582156110d6579182015b828111156110d55782518255916020019190600101906110ba565b5b5090506110e391906110e7565b5090565b61110991905b808211156111055760008160009055506001016110ed565b5090565b90565b60006111188235611622565b905092915050565b600061112c8235611634565b905092915050565b600082601f830112151561114757600080fd5b813561115a61115582611558565b61152b565b9150808252602083016020830185838301111561117657600080fd5b611181838284611640565b50505092915050565b60006020828403121561119c57600080fd5b60006111aa8482850161110c565b91505092915050565b600080604083850312156111c657600080fd5b60006111d48582860161110c565b925050602083013567ffffffffffffffff8111156111f157600080fd5b6111fd85828601611134565b9150509250929050565b600080600080600060a0868803121561121f57600080fd5b600086013567ffffffffffffffff81111561123957600080fd5b61124588828901611134565b955050602086013567ffffffffffffffff81111561126257600080fd5b61126e88828901611134565b945050604061127f88828901611120565b935050606086013567ffffffffffffffff81111561129c57600080fd5b6112a888828901611134565b92505060806112b98882890161110c565b9150509295509295909350565b6112cf816115e4565b82525050565b60006112e08261159e565b8084526020840193506112f283611584565b60005b828110156113245761130886835161139e565b611311826115ca565b91506020860195506001810190506112f5565b50849250505092915050565b600061133b826115a9565b8084526020840193508360208202850161135485611591565b60005b8481101561138d57838303885261136f8383516113e3565b925061137a826115d7565b9150602088019750600181019050611357565b508196508694505050505092915050565b6113a7816115f6565b82525050565b60006113b8826115bf565b8084526113cc81602086016020860161164f565b6113d581611682565b602085010191505092915050565b60006113ee826115b4565b80845261140281602086016020860161164f565b61140b81611682565b602085010191505092915050565b600060208201905061142e60008301846112c6565b92915050565b6000602082019050818103600083015261144e81846112d5565b905092915050565b600060208201905081810360008301526114708184611330565b905092915050565b600060808201905081810360008301526114928187611330565b905081810360208301526114a68186611330565b905081810360408301526114ba8185611330565b905081810360608301526114ce81846112d5565b905095945050505050565b600060208201905081810360008301526114f381846113ad565b905092915050565b6000604082019050818103600083015261151581856113e3565b905061152460208301846112c6565b9392505050565b6000604051905081810181811067ffffffffffffffff8211171561154e57600080fd5b8060405250919050565b600067ffffffffffffffff82111561156f57600080fd5b601f19601f8301169050602081019050919050565b6000602082019050919050565b6000602082019050919050565b600081519050919050565b600081519050919050565b600081519050919050565b600081519050919050565b6000602082019050919050565b6000602082019050919050565b60006115ef82611602565b9050919050565b60008115159050919050565b600073ffffffffffffffffffffffffffffffffffffffff82169050919050565b600061162d82611602565b9050919050565b60008115159050919050565b82818337600083830152505050565b60005b8381101561166d578082015181840152602081019050611652565b8381111561167c576000848401525b50505050565b6000601f19601f830116905091905056fea265627a7a7230582018d009323ee8071c0a840e67065da0370a19ad11382cdd05ef4ff9ad416b1edb6c6578706572696d656e74616cf50037",
  "source": "pragma solidity >= 0.4.24;\npragma experimental ABIEncoderV2;\n\n/** @title Personal Journal. */\ncontract Journal {\n\n    /* owner of Journal contract */\n    address owner;\n\n    /* Author contains information\n      about the author if he/she \n      chooses to provide any\n      public\n    */\n    struct Author {\n        string name;\n        address authorAddress;\n    }\n\n    // Journal Entry at this point, keeping things simple and contain  only plain-text\n    struct JournalEntry {\n        string [] title;\n        string [] body;\n        bool [] encrypt;\n        string [] tags;\n    }\n\n    // Map of entries for a given Author\n    mapping (address => Author) public authors;\n    mapping (address => JournalEntry) internal entries;\n    \n    // Modifiers\n    modifier verifyCaller(address _address)\n    {\n        require (msg.sender == _address);\n        _;\n    }\n    \n    // Events\n    event AuthorInfoUpdated(address _address);\n    event NewJournalEntryCreated(address _address);\n\n    // Initialize the contract with the owner\n    constructor() public \n    {\n        owner = msg.sender;\n    }\n\n    /** @dev Add author's name \n      * @param _address address of the callee of the contract\n      * @param _name name of the author provided\n      */\n    //todo: hook up front-end to this function\n    function addAuthorName(address _address, string memory _name)\n        public\n        verifyCaller(_address) \n    {\n        authors[_address].name = _name;\n        emit AuthorInfoUpdated(_address);\n    }\n\n    /** @dev Get author's name \n      * @param _address author's address\n      * @return name Author's name\n      */\n    function getAuthorName(address _address)\n        public\n        view\n        verifyCaller(_address)\n        returns(string memory name)\n    {\n        name = authors[_address].name;\n        return name;\n    }\n\n    /** @dev Create Journal entry for an author\n      * @param _title Journal Entry Title\n      * @param _body Journal Entry main text\n      * @param _encrypt Journal Entry boolean indicating whether to  encrypt the post or not\n      * @param _tags Journal Entry tags\n      * @param _address Journal Entry author\n       */\n    function createJournalEntry(\n        string memory _title,\n        string memory _body,\n        bool _encrypt,\n        string memory _tags,\n        address _address) \n        public\n        verifyCaller(_address)\n    {\n        entries[_address].title.push(_title);\n        entries[_address].body.push(_body);\n        entries[_address].encrypt.push(_encrypt);\n        entries[_address].tags.push(_tags);\n        emit NewJournalEntryCreated(_address);\n    }\n\n    /** @dev Get the list of posts titles for a given user \n      * @param _address Journal Entry author\n      * @return title Journal Entry array Title\n      */\n    function getJournalEntryTitle(address _address) public view returns (string[] memory)\n    {\n        return entries[_address].title;\n    }\n\n    /** @dev Get the list of maon body contexts for a given user \n      * @param _address Journal Entry author\n      * @return body Journal Entry array of main text\n      */\n    function getJournalEntryBody(address _address) public view returns (string[] memory)\n    {\n        return entries[_address].body;\n    }\n\n    /** @dev Get the list of tags for a given user\n      * @param _address Journal Entry author\n      * @return tags Journal Entry array of tags\n      */\n    function getJournalEntryTags(address _address) public view returns (string [] memory)\n    {\n        return entries[_address].tags;\n    }\n\n    /** @dev Get the list of encrypt booleans for a given user\n      * @param _address Journal Entry author\n      * @return tags Journal Entry array of encrypt flags\n      */\n    function getJournalEntryEncryptFlags(address _address) public view returns (bool [] memory)\n    {\n        return entries[_address].encrypt;\n    }\n\n    /** @dev Get the list journal entries for a given user in one pass\n      * @param _address Journal Entry author\n      * @return title Journal Entry array Title\n      * @return body Journal Entry array of main text\n      * @return tags Journal Entry array of tags\n      * @return tags Journal Entry array of encrypt flags\n      */\n    function getJournalEntry(address _address) public view returns (string [] memory, string [] memory, string [] memory, bool [] memory) {\n        return (entries[_address].title, entries[_address].body, entries[_address].tags, entries[_address].encrypt);\n  }\n}\n",
  "sourcePath": "/home/grisha/projects/EthereumBootCampFinalProject/contracts/Journal.sol",
  "compiler": {
    "name": "solc",
    "version": "0.5.0+commit.1d4f565a.Emscripten.clang"
  },
  "schemaVersion": "3.0.1",
  "updatedAt": "2019-01-28T03:35:16.992Z",
  "devdoc": {
    "methods": {
      "addAuthorName(address,string)": {
        "details": "Add author's name ",
        "params": {
          "_address": "address of the callee of the contract",
          "_name": "name of the author provided"
        }
      },
      "createJournalEntry(string,string,bool,string,address)": {
        "details": "Create Journal entry for an author",
        "params": {
          "_address": "Journal Entry author",
          "_body": "Journal Entry main text",
          "_encrypt": "Journal Entry boolean indicating whether to  encrypt the post or not",
          "_tags": "Journal Entry tags",
          "_title": "Journal Entry Title"
        }
      },
      "getAuthorName(address)": {
        "details": "Get author's name ",
        "params": {
          "_address": "author's address"
        },
        "return": "name Author's name"
      },
      "getJournalEntry(address)": {
        "details": "Get the list journal entries for a given user in one pass",
        "params": {
          "_address": "Journal Entry author"
        },
        "return": "title Journal Entry array Titlebody Journal Entry array of main texttags Journal Entry array of tagstags Journal Entry array of encrypt flags"
      },
      "getJournalEntryBody(address)": {
        "details": "Get the list of maon body contexts for a given user ",
        "params": {
          "_address": "Journal Entry author"
        },
        "return": "body Journal Entry array of main text"
      },
      "getJournalEntryEncryptFlags(address)": {
        "details": "Get the list of encrypt booleans for a given user",
        "params": {
          "_address": "Journal Entry author"
        },
        "return": "tags Journal Entry array of encrypt flags"
      },
      "getJournalEntryTags(address)": {
        "details": "Get the list of tags for a given user",
        "params": {
          "_address": "Journal Entry author"
        },
        "return": "tags Journal Entry array of tags"
      },
      "getJournalEntryTitle(address)": {
        "details": "Get the list of posts titles for a given user ",
        "params": {
          "_address": "Journal Entry author"
        },
        "return": "title Journal Entry array Title"
      }
    },
    "title": "Personal Journal. "
  },
  "userdoc": {
    "methods": {}
  }
}