{
  "contractName": "Journal",
  "abi": [
    {
      "constant": true,
      "inputs": [
        {
          "name": "",
          "type": "address"
        }
      ],
      "name": "authors",
      "outputs": [
        {
          "name": "name",
          "type": "string"
        },
        {
          "name": "authorAddress",
          "type": "address"
        }
      ],
      "payable": false,
      "stateMutability": "view",
      "type": "function",
      "signature": "0xbf9c5001"
    },
    {
      "constant": true,
      "inputs": [
        {
          "name": "",
          "type": "address"
        }
      ],
      "name": "entries",
      "outputs": [
        {
          "name": "id",
          "type": "uint256"
        }
      ],
      "payable": false,
      "stateMutability": "view",
      "type": "function",
      "signature": "0xf29ee125"
    },
    {
      "inputs": [],
      "payable": false,
      "stateMutability": "nonpayable",
      "type": "constructor",
      "signature": "constructor"
    },
    {
      "constant": false,
      "inputs": [
        {
          "name": "_address",
          "type": "address"
        },
        {
          "name": "_name",
          "type": "string"
        }
      ],
      "name": "addAuthorName",
      "outputs": [
        {
          "name": "",
          "type": "bool"
        }
      ],
      "payable": false,
      "stateMutability": "nonpayable",
      "type": "function",
      "signature": "0x511846e3"
    },
    {
      "constant": true,
      "inputs": [
        {
          "name": "_address",
          "type": "address"
        }
      ],
      "name": "getAuthorName",
      "outputs": [
        {
          "name": "",
          "type": "string"
        }
      ],
      "payable": false,
      "stateMutability": "view",
      "type": "function",
      "signature": "0x64960932"
    },
    {
      "constant": false,
      "inputs": [
        {
          "name": "_title",
          "type": "string"
        },
        {
          "name": "_body",
          "type": "string"
        },
        {
          "name": "_encrypt",
          "type": "bool"
        },
        {
          "name": "_tags",
          "type": "string"
        },
        {
          "name": "_address",
          "type": "address"
        }
      ],
      "name": "createJournalEntry",
      "outputs": [
        {
          "name": "",
          "type": "bool"
        }
      ],
      "payable": false,
      "stateMutability": "nonpayable",
      "type": "function",
      "signature": "0x5b2a8be9"
    },
    {
      "constant": true,
      "inputs": [
        {
          "name": "_address",
          "type": "address"
        }
      ],
      "name": "getJournalEntryTitle",
      "outputs": [
        {
          "name": "title",
          "type": "string[]"
        }
      ],
      "payable": false,
      "stateMutability": "view",
      "type": "function",
      "signature": "0x487cb70a"
    },
    {
      "constant": true,
      "inputs": [
        {
          "name": "_address",
          "type": "address"
        }
      ],
      "name": "getJournalEntryBody",
      "outputs": [
        {
          "name": "body",
          "type": "string[]"
        }
      ],
      "payable": false,
      "stateMutability": "view",
      "type": "function",
      "signature": "0xcc41f3b3"
    },
    {
      "constant": true,
      "inputs": [
        {
          "name": "_address",
          "type": "address"
        }
      ],
      "name": "getJournalEntryTags",
      "outputs": [
        {
          "name": "tags",
          "type": "string[]"
        }
      ],
      "payable": false,
      "stateMutability": "view",
      "type": "function",
      "signature": "0x2913f042"
    }
  ],
  "bytecode": "0x608060405234801561001057600080fd5b50336000806101000a81548173ffffffffffffffffffffffffffffffffffffffff021916908373ffffffffffffffffffffffffffffffffffffffff1602179055506110a2806100606000396000f3fe60806040526004361061008e576000357c0100000000000000000000000000000000000000000000000000000000900463ffffffff1680632913f04214610093578063487cb70a146100d0578063511846e31461010d5780635b2a8be91461014a5780636496093214610187578063bf9c5001146101c4578063cc41f3b314610202578063f29ee1251461023f575b600080fd5b34801561009f57600080fd5b506100ba60048036036100b59190810190610c2e565b61027c565b6040516100c79190610e71565b60405180910390f35b3480156100dc57600080fd5b506100f760048036036100f29190810190610c2e565b6103a7565b6040516101049190610e71565b60405180910390f35b34801561011957600080fd5b50610134600480360361012f9190810190610c57565b6104d2565b6040516101419190610e93565b60405180910390f35b34801561015657600080fd5b50610171600480360361016c9190810190610cab565b610571565b60405161017e9190610e93565b60405180910390f35b34801561019357600080fd5b506101ae60048036036101a99190810190610c2e565b6107c0565b6040516101bb9190610eae565b60405180910390f35b3480156101d057600080fd5b506101eb60048036036101e69190810190610c2e565b6108e6565b6040516101f9929190610ed0565b60405180910390f35b34801561020e57600080fd5b5061022960048036036102249190810190610c2e565b6109c2565b6040516102369190610e71565b60405180910390f35b34801561024b57600080fd5b5061026660048036036102619190810190610c2e565b610aed565b6040516102739190610f00565b60405180910390f35b6060600260008373ffffffffffffffffffffffffffffffffffffffff1673ffffffffffffffffffffffffffffffffffffffff168152602001908152602001600020600301805480602002602001604051908101604052809291908181526020016000905b8282101561039c578382906000526020600020018054600181600116156101000203166002900480601f0160208091040260200160405190810160405280929190818152602001828054600181600116156101000203166002900480156103885780601f1061035d57610100808354040283529160200191610388565b820191906000526020600020905b81548152906001019060200180831161036b57829003601f168201915b5050505050815260200190600101906102e0565b505050509050919050565b6060600260008373ffffffffffffffffffffffffffffffffffffffff1673ffffffffffffffffffffffffffffffffffffffff168152602001908152602001600020600001805480602002602001604051908101604052809291908181526020016000905b828210156104c7578382906000526020600020018054600181600116156101000203166002900480601f0160208091040260200160405190810160405280929190818152602001828054600181600116156101000203166002900480156104b35780601f10610488576101008083540402835291602001916104b3565b820191906000526020600020905b81548152906001019060200180831161049657829003601f168201915b50505050508152602001906001019061040b565b505050509050919050565b6000828073ffffffffffffffffffffffffffffffffffffffff163373ffffffffffffffffffffffffffffffffffffffff1614151561050f57600080fd5b82600160008673ffffffffffffffffffffffffffffffffffffffff1673ffffffffffffffffffffffffffffffffffffffff1681526020019081526020016000206000019080519060200190610565929190610b0b565b50600191505092915050565b6000818073ffffffffffffffffffffffffffffffffffffffff163373ffffffffffffffffffffffffffffffffffffffff161415156105ae57600080fd5b600260008473ffffffffffffffffffffffffffffffffffffffff1673ffffffffffffffffffffffffffffffffffffffff16815260200190815260200160002060000187908060018154018082558091505090600182039060005260206000200160009091929091909150908051906020019061062b929190610b0b565b5050600260008473ffffffffffffffffffffffffffffffffffffffff1673ffffffffffffffffffffffffffffffffffffffff1681526020019081526020016000206001018690806001815401808255809150509060018203906000526020600020016000909192909190915090805190602001906106aa929190610b0b565b5050600260008473ffffffffffffffffffffffffffffffffffffffff1673ffffffffffffffffffffffffffffffffffffffff16815260200190815260200160002060020185908060018154018082558091505090600182039060005260206000209060209182820401919006909192909190916101000a81548160ff02191690831515021790555050600260008473ffffffffffffffffffffffffffffffffffffffff1673ffffffffffffffffffffffffffffffffffffffff1681526020019081526020016000206003018490806001815401808255809150509060018203906000526020600020016000909192909190915090805190602001906107b0929190610b0b565b5050600191505095945050505050565b6060818073ffffffffffffffffffffffffffffffffffffffff163373ffffffffffffffffffffffffffffffffffffffff161415156107fd57600080fd5b6060600160008573ffffffffffffffffffffffffffffffffffffffff1673ffffffffffffffffffffffffffffffffffffffff1681526020019081526020016000206000018054600181600116156101000203166002900480601f0160208091040260200160405190810160405280929190818152602001828054600181600116156101000203166002900480156108d55780601f106108aa576101008083540402835291602001916108d5565b820191906000526020600020905b8154815290600101906020018083116108b857829003601f168201915b505050505090508092505050919050565b6001602052806000526040600020600091509050806000018054600181600116156101000203166002900480601f0160208091040260200160405190810160405280929190818152602001828054600181600116156101000203166002900480156109925780601f1061096757610100808354040283529160200191610992565b820191906000526020600020905b81548152906001019060200180831161097557829003601f168201915b5050505050908060010160009054906101000a900473ffffffffffffffffffffffffffffffffffffffff16905082565b6060600260008373ffffffffffffffffffffffffffffffffffffffff1673ffffffffffffffffffffffffffffffffffffffff168152602001908152602001600020600101805480602002602001604051908101604052809291908181526020016000905b82821015610ae2578382906000526020600020018054600181600116156101000203166002900480601f016020809104026020016040519081016040528092919081815260200182805460018160011615610100020316600290048015610ace5780601f10610aa357610100808354040283529160200191610ace565b820191906000526020600020905b815481529060010190602001808311610ab157829003601f168201915b505050505081526020019060010190610a26565b505050509050919050565b60026020528060005260406000206000915090508060040154905081565b828054600181600116156101000203166002900490600052602060002090601f016020900481019282601f10610b4c57805160ff1916838001178555610b7a565b82800160010185558215610b7a579182015b82811115610b79578251825591602001919060010190610b5e565b5b509050610b879190610b8b565b5090565b610bad91905b80821115610ba9576000816000905550600101610b91565b5090565b90565b6000610bbc8235610ff7565b905092915050565b6000610bd08235611009565b905092915050565b600082601f8301121515610beb57600080fd5b8135610bfe610bf982610f48565b610f1b565b91508082526020830160208301858383011115610c1a57600080fd5b610c25838284611015565b50505092915050565b600060208284031215610c4057600080fd5b6000610c4e84828501610bb0565b91505092915050565b60008060408385031215610c6a57600080fd5b6000610c7885828601610bb0565b925050602083013567ffffffffffffffff811115610c9557600080fd5b610ca185828601610bd8565b9150509250929050565b600080600080600060a08688031215610cc357600080fd5b600086013567ffffffffffffffff811115610cdd57600080fd5b610ce988828901610bd8565b955050602086013567ffffffffffffffff811115610d0657600080fd5b610d1288828901610bd8565b9450506040610d2388828901610bc4565b935050606086013567ffffffffffffffff811115610d4057600080fd5b610d4c88828901610bd8565b9250506080610d5d88828901610bb0565b9150509295509295909350565b610d7381610faf565b82525050565b6000610d8482610f81565b80845260208401935083602082028501610d9d85610f74565b60005b84811015610dd6578383038852610db8838351610e2c565b9250610dc382610fa2565b9150602088019750600181019050610da0565b508196508694505050505092915050565b610df081610fc1565b82525050565b6000610e0182610f97565b808452610e15816020860160208601611024565b610e1e81611057565b602085010191505092915050565b6000610e3782610f8c565b808452610e4b816020860160208601611024565b610e5481611057565b602085010191505092915050565b610e6b81610fed565b82525050565b60006020820190508181036000830152610e8b8184610d79565b905092915050565b6000602082019050610ea86000830184610de7565b92915050565b60006020820190508181036000830152610ec88184610df6565b905092915050565b60006040820190508181036000830152610eea8185610e2c565b9050610ef96020830184610d6a565b9392505050565b6000602082019050610f156000830184610e62565b92915050565b6000604051905081810181811067ffffffffffffffff82111715610f3e57600080fd5b8060405250919050565b600067ffffffffffffffff821115610f5f57600080fd5b601f19601f8301169050602081019050919050565b6000602082019050919050565b600081519050919050565b600081519050919050565b600081519050919050565b6000602082019050919050565b6000610fba82610fcd565b9050919050565b60008115159050919050565b600073ffffffffffffffffffffffffffffffffffffffff82169050919050565b6000819050919050565b600061100282610fcd565b9050919050565b60008115159050919050565b82818337600083830152505050565b60005b83811015611042578082015181840152602081019050611027565b83811115611051576000848401525b50505050565b6000601f19601f830116905091905056fea265627a7a723058208048dbf3dcf3753ff7db5cb30d2af4d6748c93baa1307d6b6c9f8e375acafa226c6578706572696d656e74616cf50037",
  "source": "pragma solidity >= 0.4.24;\npragma experimental ABIEncoderV2;\n\ncontract Journal {\n\n    /* owner of Journal contract */\n    address owner;\n\n    /* Author contains information\n      about the author if he/she \n      chooses to provide any\n      public\n    */\n    struct Author {\n        string name;\n        address authorAddress;\n    }\n\n    /* Information of the contributors */\n    // struct Contributor {\n    //     address contributor;\n    //     string name;\n    // }\n\n    /* Journal Entry at this point,\n     keeping things simple and contain\n     only plain-text\n    */\n    struct JournalEntry {\n        string [] title;\n        string [] body;\n        bool [] encrypt;\n        string [] tags;\n        uint id;\n    }\n\n    /* Map of entries for a given Author */\n    mapping (address => Author) public authors;\n    mapping (address => JournalEntry) public entries;\n    \n    /* Modifiers */\n    modifier verifyCaller(address _address)\n    {\n        require (msg.sender == _address);\n        _;\n    }\n    \n    /* Events */\n    \n\n    /* Initialize the contract with the owner*/\n    constructor() public {\n        owner = msg.sender;\n    }\n\n    /** Add author's name */\n    function addAuthorName(address _address, string memory _name)\n        public\n        verifyCaller(_address)\n        returns(bool) {\n            authors[_address].name = _name;\n            return true;\n    }\n\n    /* Get author's name */\n    function getAuthorName(address _address)\n        public\n        view\n        verifyCaller(_address)\n        returns(string memory) {\n            string memory name = authors[_address].name;\n        return name;\n    }\n\n    /* Create Journal entry for an author */\n    function createJournalEntry(\n        string memory _title,\n        string memory _body,\n        bool _encrypt,\n        string memory _tags,\n        address _address) \n        public\n        verifyCaller(_address)\n        returns (bool) {\n        // entries[_address].title.push(strConcat(_title));\n        // entries[_address].body.push(strConcat(_body));\n        // entries[_address].encrypt.push(_encrypt);\n        // entries[_address].tags.push(strConcat(_tags));\n        entries[_address].title.push(_title);\n        entries[_address].body.push(_body);\n        entries[_address].encrypt.push(_encrypt);\n        entries[_address].tags.push(_tags);\n        return true;\n    }\n\n    /* Get the list of entries for a given user */\n    function getJournalEntryTitle(address _address) public view returns (string[] memory title) {\n        //todo: \n        return entries[_address].title;\n    }\n\n    function getJournalEntryBody(address _address) public view returns (string[] memory body) {\n        return entries[_address].body;\n    }\n\n    function getJournalEntryTags(address _address) public view returns (string [] memory tags) {\n        return entries[_address].tags;\n    }\n\n    /* Helper functions */\n    // concatenates string with a delimeter of formm ',|--|'\n    function strConcat(string memory _a) internal returns (string memory)\n    {\n        string memory delimeter = \",|--|\";\n        bytes memory _ba = bytes(_a);\n        bytes memory _bb = bytes(delimeter);\n     \n        string memory ab = new string(_ba.length + _bb.length );\n        bytes memory ba = bytes(ab);\n        uint k = 0;\n        for (uint i = 0; i < _ba.length; i++) {\n            ba[k++] = _ba[i];\n        }\n        for (uint i = 0; i < _bb.length; i++) {\n            ba[k++] = _bb[i];\n        }\n        return string(ba);\n    }\n}\n",
  "sourcePath": "/home/grisha/projects/EthereumBootCampFinalProject/contracts/Journal.sol",
  "compiler": {
    "name": "solc",
    "version": "0.5.0+commit.1d4f565a.Emscripten.clang"
  },
  "schemaVersion": "3.0.1",
  "updatedAt": "2019-01-27T00:09:05.256Z",
  "devdoc": {
    "methods": {}
  },
  "userdoc": {
    "methods": {
      "addAuthorName(address,string)": {
        "notice": "Add author's name "
      }
    }
  }
}