{
  "contractName": "Journal",
  "abi": [
    {
      "constant": true,
      "inputs": [
        {
          "name": "",
          "type": "address"
        }
      ],
      "name": "authors",
      "outputs": [
        {
          "name": "",
          "type": "bytes32"
        }
      ],
      "payable": false,
      "stateMutability": "view",
      "type": "function"
    },
    {
      "constant": true,
      "inputs": [
        {
          "name": "",
          "type": "address"
        }
      ],
      "name": "entries",
      "outputs": [
        {
          "name": "title",
          "type": "string"
        },
        {
          "name": "body",
          "type": "string"
        },
        {
          "name": "encrypt",
          "type": "bool"
        },
        {
          "name": "id",
          "type": "uint256"
        }
      ],
      "payable": false,
      "stateMutability": "view",
      "type": "function"
    },
    {
      "inputs": [],
      "payable": false,
      "stateMutability": "nonpayable",
      "type": "constructor"
    },
    {
      "constant": true,
      "inputs": [
        {
          "name": "_address",
          "type": "address"
        }
      ],
      "name": "getJournalEntryTitle",
      "outputs": [
        {
          "name": "title",
          "type": "string"
        }
      ],
      "payable": false,
      "stateMutability": "view",
      "type": "function"
    },
    {
      "constant": true,
      "inputs": [
        {
          "name": "_address",
          "type": "address"
        }
      ],
      "name": "getJournalEntryBody",
      "outputs": [
        {
          "name": "body",
          "type": "string"
        }
      ],
      "payable": false,
      "stateMutability": "view",
      "type": "function"
    },
    {
      "constant": true,
      "inputs": [
        {
          "name": "_address",
          "type": "address"
        }
      ],
      "name": "getJournalEntryTags",
      "outputs": [
        {
          "name": "tags",
          "type": "string[]"
        }
      ],
      "payable": false,
      "stateMutability": "view",
      "type": "function"
    },
    {
      "constant": false,
      "inputs": [
        {
          "name": "_address",
          "type": "address"
        }
      ],
      "name": "authorExists",
      "outputs": [
        {
          "name": "_exists",
          "type": "bool"
        }
      ],
      "payable": false,
      "stateMutability": "nonpayable",
      "type": "function"
    },
    {
      "constant": false,
      "inputs": [
        {
          "components": [
            {
              "name": "title",
              "type": "string"
            },
            {
              "name": "body",
              "type": "string"
            },
            {
              "name": "encrypt",
              "type": "bool"
            },
            {
              "name": "tags",
              "type": "string[]"
            },
            {
              "name": "id",
              "type": "uint256"
            }
          ],
          "name": "entry",
          "type": "tuple"
        },
        {
          "name": "author",
          "type": "address"
        }
      ],
      "name": "createJournalEntry",
      "outputs": [
        {
          "name": "",
          "type": "bool"
        }
      ],
      "payable": false,
      "stateMutability": "nonpayable",
      "type": "function"
    }
  ],
  "bytecode": "0x608060405234801561001057600080fd5b50336000806101000a81548173ffffffffffffffffffffffffffffffffffffffff021916908373ffffffffffffffffffffffffffffffffffffffff16021790555061104b806100606000396000f3fe608060405260043610610083576000357c0100000000000000000000000000000000000000000000000000000000900463ffffffff1680631c705b2b146100885780632913f042146100c5578063487cb70a14610102578063ac6eaeee1461013f578063bf9c50011461017c578063cc41f3b3146101b9578063f29ee125146101f6575b600080fd5b34801561009457600080fd5b506100af60048036036100aa9190810190610c72565b610236565b6040516100bc9190610def565b60405180910390f35b3480156100d157600080fd5b506100ec60048036036100e79190810190610c49565b6103b1565b6040516100f99190610dcd565b60405180910390f35b34801561010e57600080fd5b5061012960048036036101249190810190610c49565b6104dc565b6040516101369190610e25565b60405180910390f35b34801561014b57600080fd5b5061016660048036036101619190810190610c49565b6105c0565b6040516101739190610def565b60405180910390f35b34801561018857600080fd5b506101a3600480360361019e9190810190610c49565b61060f565b6040516101b09190610e0a565b60405180910390f35b3480156101c557600080fd5b506101e060048036036101db9190810190610c49565b610627565b6040516101ed9190610e25565b60405180910390f35b34801561020257600080fd5b5061021d60048036036102189190810190610c49565b61070b565b60405161022d9493929190610e47565b60405180910390f35b60008260000151600260008473ffffffffffffffffffffffffffffffffffffffff1673ffffffffffffffffffffffffffffffffffffffff1681526020019081526020016000206000019080519060200190610292929190610878565b508260200151600260008473ffffffffffffffffffffffffffffffffffffffff1673ffffffffffffffffffffffffffffffffffffffff16815260200190815260200160002060010190805190602001906102ed929190610878565b508260400151600260008473ffffffffffffffffffffffffffffffffffffffff1673ffffffffffffffffffffffffffffffffffffffff16815260200190815260200160002060020160006101000a81548160ff0219169083151502179055508260600151600260008473ffffffffffffffffffffffffffffffffffffffff1673ffffffffffffffffffffffffffffffffffffffff16815260200190815260200160002060030190805190602001906103a69291906108f8565b506001905092915050565b6060600260008373ffffffffffffffffffffffffffffffffffffffff1673ffffffffffffffffffffffffffffffffffffffff168152602001908152602001600020600301805480602002602001604051908101604052809291908181526020016000905b828210156104d1578382906000526020600020018054600181600116156101000203166002900480601f0160208091040260200160405190810160405280929190818152602001828054600181600116156101000203166002900480156104bd5780601f10610492576101008083540402835291602001916104bd565b820191906000526020600020905b8154815290600101906020018083116104a057829003601f168201915b505050505081526020019060010190610415565b505050509050919050565b6060600260008373ffffffffffffffffffffffffffffffffffffffff1673ffffffffffffffffffffffffffffffffffffffff1681526020019081526020016000206000018054600181600116156101000203166002900480601f0160208091040260200160405190810160405280929190818152602001828054600181600116156101000203166002900480156105b45780601f10610589576101008083540402835291602001916105b4565b820191906000526020600020905b81548152906001019060200180831161059757829003601f168201915b50505050509050919050565b600080600102600160008473ffffffffffffffffffffffffffffffffffffffff1673ffffffffffffffffffffffffffffffffffffffff1681526020019081526020016000205414159050919050565b60016020528060005260406000206000915090505481565b6060600260008373ffffffffffffffffffffffffffffffffffffffff1673ffffffffffffffffffffffffffffffffffffffff1681526020019081526020016000206001018054600181600116156101000203166002900480601f0160208091040260200160405190810160405280929190818152602001828054600181600116156101000203166002900480156106ff5780601f106106d4576101008083540402835291602001916106ff565b820191906000526020600020905b8154815290600101906020018083116106e257829003601f168201915b50505050509050919050565b6002602052806000526040600020600091509050806000018054600181600116156101000203166002900480601f0160208091040260200160405190810160405280929190818152602001828054600181600116156101000203166002900480156107b75780601f1061078c576101008083540402835291602001916107b7565b820191906000526020600020905b81548152906001019060200180831161079a57829003601f168201915b505050505090806001018054600181600116156101000203166002900480601f0160208091040260200160405190810160405280929190818152602001828054600181600116156101000203166002900480156108555780601f1061082a57610100808354040283529160200191610855565b820191906000526020600020905b81548152906001019060200180831161083857829003601f168201915b5050505050908060020160009054906101000a900460ff16908060040154905084565b828054600181600116156101000203166002900490600052602060002090601f016020900481019282601f106108b957805160ff19168380011785556108e7565b828001600101855582156108e7579182015b828111156108e65782518255916020019190600101906108cb565b5b5090506108f49190610958565b5090565b828054828255906000526020600020908101928215610947579160200282015b8281111561094657825182908051906020019061093692919061097d565b5091602001919060010190610918565b5b50905061095491906109fd565b5090565b61097a91905b8082111561097657600081600090555060010161095e565b5090565b90565b828054600181600116156101000203166002900490600052602060002090601f016020900481019282601f106109be57805160ff19168380011785556109ec565b828001600101855582156109ec579182015b828111156109eb5782518255916020019190600101906109d0565b5b5090506109f99190610958565b5090565b610a2691905b80821115610a225760008181610a199190610a29565b50600101610a03565b5090565b90565b50805460018160011615610100020316600290046000825580601f10610a4f5750610a6e565b601f016020900490600052602060002090810190610a6d9190610958565b5b50565b6000610a7d8235610f96565b905092915050565b600082601f8301121515610a9857600080fd5b8135610aab610aa682610ec7565b610e9a565b9150818183526020840193506020810190508360005b83811015610af15781358601610ad78882610b0f565b845260208401935060208301925050600181019050610ac1565b5050505092915050565b6000610b078235610fa8565b905092915050565b600082601f8301121515610b2257600080fd5b8135610b35610b3082610eef565b610e9a565b91508082526020830160208301858383011115610b5157600080fd5b610b5c838284610fbe565b50505092915050565b600060a08284031215610b7757600080fd5b610b8160a0610e9a565b9050600082013567ffffffffffffffff811115610b9d57600080fd5b610ba984828501610b0f565b600083015250602082013567ffffffffffffffff811115610bc957600080fd5b610bd584828501610b0f565b6020830152506040610be984828501610afb565b604083015250606082013567ffffffffffffffff811115610c0957600080fd5b610c1584828501610a85565b6060830152506080610c2984828501610c35565b60808301525092915050565b6000610c418235610fb4565b905092915050565b600060208284031215610c5b57600080fd5b6000610c6984828501610a71565b91505092915050565b60008060408385031215610c8557600080fd5b600083013567ffffffffffffffff811115610c9f57600080fd5b610cab85828601610b65565b9250506020610cbc85828601610a71565b9150509250929050565b6000610cd182610f28565b80845260208401935083602082028501610cea85610f1b565b60005b84811015610d23578383038852610d05838351610d88565b9250610d1082610f49565b9150602088019750600181019050610ced565b508196508694505050505092915050565b610d3d81610f56565b82525050565b610d4c81610f62565b82525050565b6000610d5d82610f3e565b808452610d71816020860160208601610fcd565b610d7a81611000565b602085010191505092915050565b6000610d9382610f33565b808452610da7816020860160208601610fcd565b610db081611000565b602085010191505092915050565b610dc781610f8c565b82525050565b60006020820190508181036000830152610de78184610cc6565b905092915050565b6000602082019050610e046000830184610d34565b92915050565b6000602082019050610e1f6000830184610d43565b92915050565b60006020820190508181036000830152610e3f8184610d52565b905092915050565b60006080820190508181036000830152610e618187610d88565b90508181036020830152610e758186610d88565b9050610e846040830185610d34565b610e916060830184610dbe565b95945050505050565b6000604051905081810181811067ffffffffffffffff82111715610ebd57600080fd5b8060405250919050565b600067ffffffffffffffff821115610ede57600080fd5b602082029050602081019050919050565b600067ffffffffffffffff821115610f0657600080fd5b601f19601f8301169050602081019050919050565b6000602082019050919050565b600081519050919050565b600081519050919050565b600081519050919050565b6000602082019050919050565b60008115159050919050565b6000819050919050565b600073ffffffffffffffffffffffffffffffffffffffff82169050919050565b6000819050919050565b6000610fa182610f6c565b9050919050565b60008115159050919050565b6000819050919050565b82818337600083830152505050565b60005b83811015610feb578082015181840152602081019050610fd0565b83811115610ffa576000848401525b50505050565b6000601f19601f830116905091905056fea265627a7a723058209bc5e8a47472f986a4481fb0cc3fb481fc025e71627adf0b32244e66fbe841286c6578706572696d656e74616cf50037",
  "source": "pragma solidity >= 0.4.24;\npragma experimental ABIEncoderV2;\n\ncontract Journal {\n\n    /* owner of the journal entry */\n    address owner;\n\n    /* struct Author contains \n      information about \n      the author if he/she \n      chooses for it to be\n      public\n    */\n    struct Author {\n        string name;\n        address authorAddress;\n    }\n\n    /* Information of the contributors */\n    struct Contributor {\n        address contributor;\n        string name;\n    }\n\n    /* Journal Entry\n     at this point,\n     keeping things\n     simple and contain\n     only simple text\n    */\n    struct JournalEntry {\n        string title;\n        string body;\n        bool encrypt;\n        string[] tags;\n        uint id;\n    }\n\n    /* Map of entries for a given Author */\n    //mapping (address => uint) public entries;\n    mapping (address => bytes32) public authors;\n    mapping (address => JournalEntry) public entries;\n    \n    /* Modifiers */\n    modifier verifyCaller(address _address)\n    {\n        require (msg.sender == _address);\n        _;\n    }\n\n    /* Initialize the contract with the owner*/\n    constructor() public {\n        owner = msg.sender;\n    }\n\n    /* Getthe list of entries for a given user */\n    function getJournalEntryTitle(address _address) public view returns (string memory title) {\n        return entries[_address].title;\n    }\n\n    function getJournalEntryBody(address _address) public view returns (string memory body) {\n        return entries[_address].body;\n    }\n\n    function getJournalEntryTags(address _address) public view returns (string [] memory tags) {\n        return entries[_address].tags;\n    }\n\n    function authorExists(address _address) public returns(bool _exists) {\n        return (authors[_address] != bytes32(0));\n    }\n\n    function createJournalEntry(JournalEntry memory entry, address author) public returns (bool) {\n        entries[author].title = entry.title;\n        entries[author].body = entry.body;\n        entries[author].encrypt = entry.encrypt;\n        entries[author].tags = entry.tags;\n        return true;        \n    }\n}\n",
  "sourcePath": "/home/grisha/projects/EthereumBootCampFinalProject/contracts/Journal.sol",
  "compiler": {
    "name": "solc",
    "version": "0.5.0+commit.1d4f565a.Emscripten.clang"
  },
  "schemaVersion": "3.0.1",
  "updatedAt": "2019-01-22T01:11:13.840Z",
  "devdoc": {
    "methods": {}
  },
  "userdoc": {
    "methods": {}
  }
}